{
  "contractName": "Wallet",
  "abi": [
    {
      "inputs": [
        {
          "internalType": "address[]",
          "name": "_owners",
          "type": "address[]"
        },
        {
          "internalType": "uint256",
          "name": "_limit",
          "type": "uint256"
        }
      ],
      "stateMutability": "nonpayable",
      "type": "constructor"
    },
    {
      "anonymous": false,
      "inputs": [
        {
          "indexed": false,
          "internalType": "uint256",
          "name": "_id",
          "type": "uint256"
        },
        {
          "indexed": false,
          "internalType": "uint256",
          "name": "_approvals",
          "type": "uint256"
        },
        {
          "indexed": false,
          "internalType": "address",
          "name": "_approver",
          "type": "address"
        }
      ],
      "name": "ApprovalRecieved",
      "type": "event"
    },
    {
      "anonymous": false,
      "inputs": [
        {
          "indexed": false,
          "internalType": "uint256",
          "name": "_id",
          "type": "uint256"
        }
      ],
      "name": "TransferApproved",
      "type": "event"
    },
    {
      "anonymous": false,
      "inputs": [
        {
          "indexed": false,
          "internalType": "uint256",
          "name": "_id",
          "type": "uint256"
        },
        {
          "indexed": false,
          "internalType": "uint256",
          "name": "_amount",
          "type": "uint256"
        },
        {
          "indexed": false,
          "internalType": "address",
          "name": "_initiator",
          "type": "address"
        },
        {
          "indexed": false,
          "internalType": "address",
          "name": "_reciever",
          "type": "address"
        }
      ],
      "name": "TransferRequestsCreated",
      "type": "event"
    },
    {
      "inputs": [
        {
          "internalType": "uint256",
          "name": "",
          "type": "uint256"
        }
      ],
      "name": "owners",
      "outputs": [
        {
          "internalType": "address",
          "name": "",
          "type": "address"
        }
      ],
      "stateMutability": "view",
      "type": "function"
    },
    {
      "inputs": [],
      "name": "deposit",
      "outputs": [],
      "stateMutability": "payable",
      "type": "function"
    },
    {
      "inputs": [
        {
          "internalType": "uint256",
          "name": "_amount",
          "type": "uint256"
        },
        {
          "internalType": "address payable",
          "name": "_reciever",
          "type": "address"
        }
      ],
      "name": "createTransfer",
      "outputs": [],
      "stateMutability": "nonpayable",
      "type": "function"
    },
    {
      "inputs": [
        {
          "internalType": "uint256",
          "name": "_id",
          "type": "uint256"
        }
      ],
      "name": "approve",
      "outputs": [],
      "stateMutability": "nonpayable",
      "type": "function"
    },
    {
      "inputs": [],
      "name": "getTransferRequest",
      "outputs": [
        {
          "components": [
            {
              "internalType": "uint256",
              "name": "amount",
              "type": "uint256"
            },
            {
              "internalType": "address payable",
              "name": "reciever",
              "type": "address"
            },
            {
              "internalType": "uint256",
              "name": "approvals",
              "type": "uint256"
            },
            {
              "internalType": "bool",
              "name": "hasBeenSent",
              "type": "bool"
            },
            {
              "internalType": "uint256",
              "name": "id",
              "type": "uint256"
            }
          ],
          "internalType": "struct Wallet.Transfer[]",
          "name": "",
          "type": "tuple[]"
        }
      ],
      "stateMutability": "view",
      "type": "function"
    },
    {
      "inputs": [],
      "name": "getBalance",
      "outputs": [
        {
          "internalType": "uint256",
          "name": "",
          "type": "uint256"
        }
      ],
      "stateMutability": "view",
      "type": "function"
    }
  ],
  "bytecode": "0x60806040523480156200001157600080fd5b5060405162001144380380620011448339818101604052810190620000379190620001dd565b81600090805190602001906200004f9291906200005f565b5080600181905550505062000377565b828054828255906000526020600020908101928215620000db579160200282015b82811115620000da5782518260006101000a81548173ffffffffffffffffffffffffffffffffffffffff021916908373ffffffffffffffffffffffffffffffffffffffff1602179055509160200191906001019062000080565b5b509050620000ea9190620000ee565b5090565b5b8082111562000109576000816000905550600101620000ef565b5090565b6000620001246200011e8462000260565b62000237565b905080838252602082019050828560208602820111156200014457600080fd5b60005b858110156200017857816200015d888262000182565b84526020840193506020830192505060018101905062000147565b5050509392505050565b600081519050620001938162000343565b92915050565b600082601f830112620001ab57600080fd5b8151620001bd8482602086016200010d565b91505092915050565b600081519050620001d7816200035d565b92915050565b60008060408385031215620001f157600080fd5b600083015167ffffffffffffffff8111156200020c57600080fd5b6200021a8582860162000199565b92505060206200022d85828601620001c6565b9150509250929050565b60006200024362000256565b9050620002518282620002cd565b919050565b6000604051905090565b600067ffffffffffffffff8211156200027e576200027d62000303565b5b602082029050602081019050919050565b60006200029c82620002a3565b9050919050565b600073ffffffffffffffffffffffffffffffffffffffff82169050919050565b6000819050919050565b620002d88262000332565b810181811067ffffffffffffffff82111715620002fa57620002f962000303565b5b80604052505050565b7f4e487b7100000000000000000000000000000000000000000000000000000000600052604160045260246000fd5b6000601f19601f8301169050919050565b6200034e816200028f565b81146200035a57600080fd5b50565b6200036881620002c3565b81146200037457600080fd5b50565b610dbd80620003876000396000f3fe6080604052600436106100555760003560e01c8063025e7c271461005a57806312065fe01461009757806320e397ab146100c25780634c12fa47146100ed578063b759f95414610116578063d0e30db01461013f575b600080fd5b34801561006657600080fd5b50610081600480360381019061007c91906109a7565b610149565b60405161008e9190610b44565b60405180910390f35b3480156100a357600080fd5b506100ac610188565b6040516100b99190610b81565b60405180910390f35b3480156100ce57600080fd5b506100d7610190565b6040516100e49190610b5f565b60405180910390f35b3480156100f957600080fd5b50610114600480360381019061010f91906109d0565b61027e565b005b34801561012257600080fd5b5061013d600480360381019061013891906109a7565b610490565b005b61014761097b565b005b6000818154811061015957600080fd5b906000526020600020016000915054906101000a900473ffffffffffffffffffffffffffffffffffffffff1681565b600047905090565b60606002805480602002602001604051908101604052809291908181526020016000905b8282101561027557838290600052602060002090600502016040518060a0016040529081600082015481526020016001820160009054906101000a900473ffffffffffffffffffffffffffffffffffffffff1673ffffffffffffffffffffffffffffffffffffffff1673ffffffffffffffffffffffffffffffffffffffff168152602001600282015481526020016003820160009054906101000a900460ff16151515158152602001600482015481525050815260200190600101906101b4565b50505050905090565b6000805b60008054905081101561033f573373ffffffffffffffffffffffffffffffffffffffff16600082815481106102e0577f4e487b7100000000000000000000000000000000000000000000000000000000600052603260045260246000fd5b9060005260206000200160009054906101000a900473ffffffffffffffffffffffffffffffffffffffff1673ffffffffffffffffffffffffffffffffffffffff16141561032c57600191505b808061033790610ce1565b915050610282565b50600115158115151461035157600080fd5b7f32e340cac9a0540003161460e7fc9f3d43c9db6168397b7115d76679581f596c60028054905084338560405161038b9493929190610bd3565b60405180910390a160026040518060a001604052808581526020018473ffffffffffffffffffffffffffffffffffffffff1681526020016000815260200160001515815260200160028054905081525090806001815401808255809150506001900390600052602060002090600502016000909190919091506000820151816000015560208201518160010160006101000a81548173ffffffffffffffffffffffffffffffffffffffff021916908373ffffffffffffffffffffffffffffffffffffffff1602179055506040820151816002015560608201518160030160006101000a81548160ff021916908315150217905550608082015181600401555050505050565b6000805b600080549050811015610551573373ffffffffffffffffffffffffffffffffffffffff16600082815481106104f2577f4e487b7100000000000000000000000000000000000000000000000000000000600052603260045260246000fd5b9060005260206000200160009054906101000a900473ffffffffffffffffffffffffffffffffffffffff1673ffffffffffffffffffffffffffffffffffffffff16141561053e57600191505b808061054990610ce1565b915050610494565b50600115158115151461056357600080fd5b60001515600360003373ffffffffffffffffffffffffffffffffffffffff1673ffffffffffffffffffffffffffffffffffffffff168152602001908152602001600020600084815260200190815260200160002060009054906101000a900460ff161515146105d157600080fd5b600015156002838154811061060f577f4e487b7100000000000000000000000000000000000000000000000000000000600052603260045260246000fd5b906000526020600020906005020160030160009054906101000a900460ff1615151461063a57600080fd5b6001600360003373ffffffffffffffffffffffffffffffffffffffff1673ffffffffffffffffffffffffffffffffffffffff168152602001908152602001600020600084815260200190815260200160002060006101000a81548160ff021916908315150217905550600282815481106106dd577f4e487b7100000000000000000000000000000000000000000000000000000000600052603260045260246000fd5b906000526020600020906005020160020160008154809291906106ff90610ce1565b91905055507faf7140a50d53d80db2d043fb8f79454a19799336e888a4036bc8c487901fb9158260028481548110610760577f4e487b7100000000000000000000000000000000000000000000000000000000600052603260045260246000fd5b9060005260206000209060050201600201543360405161078293929190610b9c565b60405180910390a1600154600283815481106107c7577f4e487b7100000000000000000000000000000000000000000000000000000000600052603260045260246000fd5b906000526020600020906005020160020154106109775760016002838154811061081a577f4e487b7100000000000000000000000000000000000000000000000000000000600052603260045260246000fd5b906000526020600020906005020160030160006101000a81548160ff0219169083151502179055506002828154811061087c577f4e487b7100000000000000000000000000000000000000000000000000000000600052603260045260246000fd5b906000526020600020906005020160010160009054906101000a900473ffffffffffffffffffffffffffffffffffffffff1673ffffffffffffffffffffffffffffffffffffffff166108fc60028481548110610901577f4e487b7100000000000000000000000000000000000000000000000000000000600052603260045260246000fd5b9060005260206000209060050201600001549081150290604051600060405180830381858888f1935050505015801561093e573d6000803e3d6000fd5b507fd9bbf1d8bef570b7e92ef1ba025425fc15915ae01f3d3be144cdc8be05442eb58260405161096e9190610b81565b60405180910390a15b5050565b565b60008135905061098c81610d59565b92915050565b6000813590506109a181610d70565b92915050565b6000602082840312156109b957600080fd5b60006109c784828501610992565b91505092915050565b600080604083850312156109e357600080fd5b60006109f185828601610992565b9250506020610a028582860161097d565b9150509250929050565b6000610a188383610abe565b60a08301905092915050565b610a2d81610cab565b82525050565b610a3c81610c63565b82525050565b610a4b81610c51565b82525050565b6000610a5c82610c28565b610a668185610c40565b9350610a7183610c18565b8060005b83811015610aa2578151610a898882610a0c565b9750610a9483610c33565b925050600181019050610a75565b5085935050505092915050565b610ab881610c75565b82525050565b60a082016000820151610ad46000850182610b26565b506020820151610ae76020850182610a33565b506040820151610afa6040850182610b26565b506060820151610b0d6060850182610aaf565b506080820151610b206080850182610b26565b50505050565b610b2f81610ca1565b82525050565b610b3e81610ca1565b82525050565b6000602082019050610b596000830184610a42565b92915050565b60006020820190508181036000830152610b798184610a51565b905092915050565b6000602082019050610b966000830184610b35565b92915050565b6000606082019050610bb16000830186610b35565b610bbe6020830185610b35565b610bcb6040830184610a42565b949350505050565b6000608082019050610be86000830187610b35565b610bf56020830186610b35565b610c026040830185610a42565b610c0f6060830184610a24565b95945050505050565b6000819050602082019050919050565b600081519050919050565b6000602082019050919050565b600082825260208201905092915050565b6000610c5c82610c81565b9050919050565b6000610c6e82610c81565b9050919050565b60008115159050919050565b600073ffffffffffffffffffffffffffffffffffffffff82169050919050565b6000819050919050565b6000610cb682610cbd565b9050919050565b6000610cc882610ccf565b9050919050565b6000610cda82610c81565b9050919050565b6000610cec82610ca1565b91507fffffffffffffffffffffffffffffffffffffffffffffffffffffffffffffffff821415610d1f57610d1e610d2a565b5b600182019050919050565b7f4e487b7100000000000000000000000000000000000000000000000000000000600052601160045260246000fd5b610d6281610c63565b8114610d6d57600080fd5b50565b610d7981610ca1565b8114610d8457600080fd5b5056fea2646970667358221220282364cc8ffe21d8b0f9e2a4770d41c11d530963593dbe90da1bce69168bc61064736f6c63430008040033",
  "immutableReferences": {},
  "source": "pragma solidity 0.8.4;\r\npragma abicoder v2;\r\n//[\"0x4B20993Bc481177ec7E8f571ceCaE8A9e22C02db\",\"0x78731D3Ca6b7E34aC0F824c42a7cC18A495cabaB\",\"0x17F6AD8Ef982297579C203069C1DbfFE4348c372\"]\r\n//0x0A098Eda01Ce92ff4A4CCb7A4fFFb5A43EBC70DC\r\ncontract Wallet{\r\n    address[] public owners;\r\n    uint limit;\r\n    struct Transfer{\r\n        uint amount;\r\n        address payable reciever;\r\n        uint approvals;\r\n        bool hasBeenSent;\r\n        uint id;\r\n    }\r\n    event TransferRequestsCreated(uint _id, uint _amount, address _initiator, address _reciever);\r\n    event ApprovalRecieved(uint _id, uint _approvals, address _approver);\r\n    event TransferApproved(uint _id);\r\n    Transfer[] transferRequests;\r\n    mapping(address => mapping(uint=>bool)) approvals;\r\n    modifier onlyOwners(){\r\n        bool owner = false;\r\n        for(uint i=0; i<owners.length;i++){\r\n            if(owners[i] == msg.sender){\r\n                owner = true;\r\n            }\r\n        }\r\n        require(owner == true);\r\n        _;\r\n    }\r\n    constructor (address[] memory _owners, uint _limit){\r\n        owners = _owners;\r\n        limit = _limit;\r\n    }\r\n    function deposit()public payable{}\r\n    function createTransfer(uint _amount, address payable _reciever) public onlyOwners{\r\n            emit TransferRequestsCreated(transferRequests.length, _amount, msg.sender, _reciever);\r\n            transferRequests.push(\r\n                Transfer(_amount, _reciever, 0, false, transferRequests.length)\r\n                );\r\n    }    \r\n    function approve(uint _id) public onlyOwners{\r\n        require(approvals[msg.sender][_id] == false);\r\n        require(transferRequests[_id].hasBeenSent == false);\r\n        approvals[msg.sender][_id] = true;\r\n        transferRequests[_id].approvals++;\r\n        emit ApprovalRecieved(_id, transferRequests[_id].approvals, msg.sender);\r\n        if(transferRequests[_id].approvals >= limit){\r\n            transferRequests[_id].hasBeenSent = true;\r\n            transferRequests[_id].reciever.transfer(transferRequests[_id].amount);\r\n            emit TransferApproved(_id);\r\n        }\r\n    }\r\n    function getTransferRequest()public view returns (Transfer[]memory){\r\n        return transferRequests;\r\n    }\r\n    function getBalance() public view returns (uint){\r\n        return address(this).balance;\r\n    }\r\n}",
  "sourcePath": "C:/Users/hp/Desktop/Ethereum/Solidity/Multi Wallet/contracts/multi_wallet.sol",
  "compiler": {
    "name": "solc",
    "version": "0.8.4+commit.c7e474f2.Emscripten.clang"
  },
  "schemaVersion": "3.4.1",
  "updatedAt": "2021-06-04T08:48:17.306Z",
  "devdoc": {
    "kind": "dev",
    "methods": {},
    "version": 1
  },
  "userdoc": {
    "kind": "user",
    "methods": {},
    "version": 1
  }
}